{
  "address": "0x35Fd3f2295e9435EE63e9B8C090FA703063eB558",
  "abi": [
    {
      "inputs": [
        {
          "internalType": "contract IERC20",
          "name": "_token",
          "type": "address"
        }
      ],
      "stateMutability": "nonpayable",
      "type": "constructor"
    },
    {
      "inputs": [],
      "name": "IsufficientBalance",
      "type": "error"
    },
    {
      "inputs": [],
      "name": "TransferFaild",
      "type": "error"
    },
    {
      "inputs": [],
      "name": "ZeroAmount",
      "type": "error"
    },
    {
      "anonymous": false,
      "inputs": [
        {
          "indexed": true,
          "internalType": "address",
          "name": "previousOwner",
          "type": "address"
        },
        {
          "indexed": true,
          "internalType": "address",
          "name": "newOwner",
          "type": "address"
        }
      ],
      "name": "OwnershipTransferred",
      "type": "event"
    },
    {
      "anonymous": false,
      "inputs": [
        {
          "indexed": true,
          "internalType": "address",
          "name": "user",
          "type": "address"
        },
        {
          "indexed": false,
          "internalType": "uint256",
          "name": "amount",
          "type": "uint256"
        }
      ],
      "name": "Topup",
      "type": "event"
    },
    {
      "anonymous": false,
      "inputs": [
        {
          "indexed": true,
          "internalType": "address",
          "name": "user",
          "type": "address"
        },
        {
          "indexed": false,
          "internalType": "uint256",
          "name": "amount",
          "type": "uint256"
        }
      ],
      "name": "Withdraw",
      "type": "event"
    },
    {
      "inputs": [],
      "name": "ETH",
      "outputs": [
        {
          "internalType": "address",
          "name": "",
          "type": "address"
        }
      ],
      "stateMutability": "view",
      "type": "function"
    },
    {
      "inputs": [],
      "name": "balanceOf",
      "outputs": [
        {
          "internalType": "uint256",
          "name": "",
          "type": "uint256"
        }
      ],
      "stateMutability": "view",
      "type": "function"
    },
    {
      "inputs": [
        {
          "internalType": "address",
          "name": "",
          "type": "address"
        }
      ],
      "name": "balances",
      "outputs": [
        {
          "internalType": "uint256",
          "name": "",
          "type": "uint256"
        }
      ],
      "stateMutability": "view",
      "type": "function"
    },
    {
      "inputs": [],
      "name": "owner",
      "outputs": [
        {
          "internalType": "address",
          "name": "",
          "type": "address"
        }
      ],
      "stateMutability": "view",
      "type": "function"
    },
    {
      "inputs": [],
      "name": "renounceOwnership",
      "outputs": [],
      "stateMutability": "nonpayable",
      "type": "function"
    },
    {
      "inputs": [],
      "name": "token",
      "outputs": [
        {
          "internalType": "contract IERC20",
          "name": "",
          "type": "address"
        }
      ],
      "stateMutability": "view",
      "type": "function"
    },
    {
      "inputs": [
        {
          "internalType": "uint256",
          "name": "_amount",
          "type": "uint256"
        }
      ],
      "name": "topup",
      "outputs": [],
      "stateMutability": "nonpayable",
      "type": "function"
    },
    {
      "inputs": [
        {
          "internalType": "address",
          "name": "newOwner",
          "type": "address"
        }
      ],
      "name": "transferOwnership",
      "outputs": [],
      "stateMutability": "nonpayable",
      "type": "function"
    },
    {
      "inputs": [
        {
          "internalType": "uint256",
          "name": "_amount",
          "type": "uint256"
        }
      ],
      "name": "withdraw",
      "outputs": [],
      "stateMutability": "nonpayable",
      "type": "function"
    }
  ],
  "transactionHash": "0x10a74b6fd3bd46be5258aa8755e9a961a7588d23dec8c88fa170eee12e96811e",
  "args": [
    "0x88Cb6E5F016BAF0c1cfAf09ED6C103153E9cF7Ce"
  ],
  "numDeployments": 1,
  "solcInputHash": "54b1b536527d79dc6c75161daa6d1649",
  "bytecode": "0x60a060405234801561001057600080fd5b5060405161087938038061087983398101604081905261002f916100a4565b600160005561003d33610052565b60601b6001600160601b0319166080526100d2565b600180546001600160a01b038381166001600160a01b0319831681179093556040519116919082907f8be0079c531659141344cd1fd0a4f28419497f9722a3daafe3b4186f6b6457e090600090a35050565b6000602082840312156100b5578081fd5b81516001600160a01b03811681146100cb578182fd5b9392505050565b60805160601c6107746101056000396000818161015f0152818161021a01528181610371015261047301526107746000f3fe608060405234801561001057600080fd5b50600436106100935760003560e01c8063722713f711610066578063722713f7146100fb5780638322fff2146101035780638da5cb5b14610136578063f2fde38b14610147578063fc0c546a1461015a57600080fd5b806327e235e3146100985780632e1a7d4d146100cb57806330db555f146100e0578063715018a6146100f3575b600080fd5b6100b86100a636600461067b565b60026020526000908152604090205481565b6040519081526020015b60405180910390f35b6100de6100d93660046106c9565b610181565b005b6100de6100ee3660046106c9565b610302565b6100de610447565b6100b861045b565b61011e73eeeeeeeeeeeeeeeeeeeeeeeeeeeeeeeeeeeeeeee81565b6040516001600160a01b0390911681526020016100c2565b6001546001600160a01b031661011e565b6100de61015536600461067b565b6104fa565b61011e7f000000000000000000000000000000000000000000000000000000000000000081565b610189610575565b806101a757604051631f2a200560e01b815260040160405180910390fd5b336000908152600260205260409020548111156101d75760405163c40505ed60e01b815260040160405180910390fd5b33600090815260026020526040812080548392906101f6908490610711565b909155505060405163a9059cbb60e01b8152336004820152602481018290526000907f00000000000000000000000000000000000000000000000000000000000000006001600160a01b03169063a9059cbb90604401602060405180830381600087803b15801561026657600080fd5b505af115801561027a573d6000803e3d6000fd5b505050506040513d601f19601f8201168201806040525081019061029e91906106a9565b9050806102be57604051635cb1974f60e11b815260040160405180910390fd5b60405182815233907f884edad9ce6fa2440d8a54cc123490eb96d2768479d49ff9c7366125a9424364906020015b60405180910390a2506102ff6001600055565b50565b61030a610575565b8061032857604051631f2a200560e01b815260040160405180910390fd5b33600090815260026020526040812080548392906103479084906106f9565b90915550506040516323b872dd60e01b8152336004820152306024820152604481018290526000907f00000000000000000000000000000000000000000000000000000000000000006001600160a01b0316906323b872dd90606401602060405180830381600087803b1580156103bd57600080fd5b505af11580156103d1573d6000803e3d6000fd5b505050506040513d601f19601f820116820180604052508101906103f591906106a9565b90508061041557604051635cb1974f60e11b815260040160405180910390fd5b60405182815233907fe42154258c884b86569a2717aa2a913a61e0c7e67ae153dc3c354b3e2d1a821a906020016102ec565b61044f6105cf565b6104596000610629565b565b6040516370a0823160e01b81523060048201526000907f00000000000000000000000000000000000000000000000000000000000000006001600160a01b0316906370a082319060240160206040518083038186803b1580156104bd57600080fd5b505afa1580156104d1573d6000803e3d6000fd5b505050506040513d601f19601f820116820180604052508101906104f591906106e1565b905090565b6105026105cf565b6001600160a01b03811661056c5760405162461bcd60e51b815260206004820152602660248201527f4f776e61626c653a206e6577206f776e657220697320746865207a65726f206160448201526564647265737360d01b60648201526084015b60405180910390fd5b6102ff81610629565b600260005414156105c85760405162461bcd60e51b815260206004820152601f60248201527f5265656e7472616e637947756172643a207265656e7472616e742063616c6c006044820152606401610563565b6002600055565b6001546001600160a01b031633146104595760405162461bcd60e51b815260206004820181905260248201527f4f776e61626c653a2063616c6c6572206973206e6f7420746865206f776e65726044820152606401610563565b600180546001600160a01b038381166001600160a01b0319831681179093556040519116919082907f8be0079c531659141344cd1fd0a4f28419497f9722a3daafe3b4186f6b6457e090600090a35050565b60006020828403121561068c578081fd5b81356001600160a01b03811681146106a2578182fd5b9392505050565b6000602082840312156106ba578081fd5b815180151581146106a2578182fd5b6000602082840312156106da578081fd5b5035919050565b6000602082840312156106f2578081fd5b5051919050565b6000821982111561070c5761070c610728565b500190565b60008282101561072357610723610728565b500390565b634e487b7160e01b600052601160045260246000fdfea26469706673582212209ba1194743d61ca4a2ba239559271ed632c2129dbe30b4c75811bb817d42b9a164736f6c63430008040033",
  "devdoc": {
    "kind": "dev",
    "methods": {
      "owner()": {
        "details": "Returns the address of the current owner."
      },
      "renounceOwnership()": {
        "details": "Leaves the contract without owner. It will not be possible to call `onlyOwner` functions anymore. Can only be called by the current owner. NOTE: Renouncing ownership will leave the contract without an owner, thereby removing any functionality that is only available to the owner."
      },
      "topup(uint256)": {
        "params": {
          "_amount": "of tokens to deposit"
        }
      },
      "transferOwnership(address)": {
        "details": "Transfers ownership of the contract to a new account (`newOwner`). Can only be called by the current owner."
      },
      "withdraw(uint256)": {
        "params": {
          "_amount": "of tokens to withdraw"
        }
      }
    },
    "version": 1
  },
  "userdoc": {
    "kind": "user",
    "methods": {
      "ETH()": {
        "notice": "ETH 0xEeeeeEeeeEeEeeEeEeEeeEEEeeeeEeeeeeeeEEeE"
      },
      "balanceOf()": {
        "notice": "balanceOf will return the smart contract token balance"
      },
      "balances(address)": {
        "notice": "user's erc20 token balances"
      },
      "token()": {
        "notice": "erc20 token address"
      },
      "topup(uint256)": {
        "notice": "topup will fetch the given amount of tokens from the caller address"
      },
      "withdraw(uint256)": {
        "notice": "withdraw will send the given amount of token to the caller address"
      }
    },
    "version": 1
  },
  "storageLayout": {
    "storage": [
      {
        "astId": 123,
        "contract": "contracts/dapp.sol:Dapp",
        "label": "_status",
        "offset": 0,
        "slot": "0",
        "type": "t_uint256"
      },
      {
        "astId": 7,
        "contract": "contracts/dapp.sol:Dapp",
        "label": "_owner",
        "offset": 0,
        "slot": "1",
        "type": "t_address"
      },
      {
        "astId": 900,
        "contract": "contracts/dapp.sol:Dapp",
        "label": "balances",
        "offset": 0,
        "slot": "2",
        "type": "t_mapping(t_address,t_uint256)"
      }
    ],
    "types": {
      "t_address": {
        "encoding": "inplace",
        "label": "address",
        "numberOfBytes": "20"
      },
      "t_mapping(t_address,t_uint256)": {
        "encoding": "mapping",
        "key": "t_address",
        "label": "mapping(address => uint256)",
        "numberOfBytes": "32",
        "value": "t_uint256"
      },
      "t_uint256": {
        "encoding": "inplace",
        "label": "uint256",
        "numberOfBytes": "32"
      }
    }
  }
}